:02000000019568
:05000B00758C06619BED
:10001B00758D64C0D0C0E030A41530A01B30A12179
:10002B0030A22730A32D30A53330A63930A73FD2CD
:10003B00A4850980C2A0804DD2A0850A80C2A18070
:10004B0044D2A1850B80C2A2803BD2A2850C80C278
:10005B00A38032D2A3850D80C2A58029D2A5850E9F
:10006B0080C2A68020D2A6850F80C2A78017D2A7F8
:10007B00850880C2A4800E0517E517B464067517B2
:10008B0000D2043232D0E0D0D03220040280FB7593
:10009B00817F758900758C06758D64D28CD28E75B7
:1000AB00A88AD2A475100075110075120075130182
:1000BB0075140175150030B00221C930B104C200AE
:1000CB0021D2D203200300E51575F06425F0F875F5
:1000DB00F00484F9E51575F00484E5F06002800CFA
:1000EB00E514B4020319800440FB8000E514900270
:1000FB00F193FAE513142A292875F00784E5F0B477
:10010B000018750FFF750E92750D86750CC2750B69
:10011B00C1750AAB7509A1750888B40118750FFF75
:10012B00750EFF750DFF750C87750B86750AAF7510
:10013B0009C6750888B40218750FFF750EFF750D8B
:10014B0098750CC1750B88750AAF7509877508888A
:10015B00B40318750FFF750EFF750D98750CC175EF
:10016B000BCF750AAB750987750888B40418750F22
:0D017B00FF750EFF750DFF750C92750B865C
:10018800750A89750987750888B40518750FFF758C
:100198000EFF750D92750C88750B83750A887509A5
:1001A800A17508A3B40618750FFF750EA1750DA3E8
:1001B800750CC8750BCF750AAB7509C27508A30114
:1001C800C130B1028004D2008000200002800520E6
:1001D8000209800720014C804A417120040280FBFB
:1001E80030B2028006D202800041FE30B302801491
:1001F800D20280000514E514B40D02800240207577
:100208001401801B30B4028004D2028004C202416F
:10021800AC0515E515B4640280024003751500C2EB
:100228000241AC30B2028014D20180000512E512FE
:10023800B418028002401E751200801930B3028083
:1002480018D20180000511E511B43C028002400576
:100258007511008000C201801030B4028004D20100
:100268008004C2018003751000E51075F00A8490BF
:1002780002E793F509E5F093F508E51175F00A84AE
:100288009002E793F50BE5F093F50AE51275F00A8D
:10029800849002E793F50DE5F093F50C85FF0E8544
:1002A800FF0F01C1E51375F00A849002E793F50F7B
:1002B800E5F093F50EE51475F00A849002E793F5DE
:1002C8000DE5F093F50C750AC0750BA4E51575F0EE
:0502D8000A849002E71A
:1002DD0093F509E5F093F50801C1C0F9A4B0999221
:1002ED0082D8809000000303060104060205000376
:1002FD00050513E514B40102804DB40202806BB400
:10030D0003028043B404028055B405028039B4065B
:10031D0002804BB40702802FB40802802AB4090270
:10032D00803CB40A028020B40B028032B40C0280EF
:10033D000201AD20B2FBE513B41F0280144012750B
:10034D001301751401412720B2E7E513B41F0441D1
:10035D0027412740FC8000751301051480F320B25E
:10036D00D0E513B41F0040E980ED20B2C4E515754A
:10037D00F00484E5F06002800BE513B41D02412703
:10038D0040CF80D3E513B41CF7800280CA32758C40
:10039D0006C0E0C0D00516E516B4FA057516008046
:1003AD0002817A0510E510B43C028002406675109A
:1003BD00000511E511B43C0280024058751100058D
:1003CD0012E512B418028002404A7512000513E5B9
:1003DD0014B401028058B402028070B40302804E3E
:1003ED00B40402805BB405028044B406028051B4AB
:1003FD000702803AB408028035B409028042B40A7B
:10040D0002802BB40B028038B40C098000E513B4C4
:10041D001F048000805740F57513017514010515F3
:10042D00E515B4630280464044751500803FE51321
:10043D00B41F028038403680007513010514802DDD
:05044D00E513B41E02DE
:100452008026402480EEE51575F00484E5F0600204
:10046200800BE513B41D02800F400D80D7E513B455
:0D0472001C028004400280CCD0D0D0E032CB
:00000001FF
