:1000000075100075110075120075130175140175D6
:1000100015007580FF75A0FFD20020001720012178
:1000200020022B20033520043F20054920065320C1
:10003000075D8068D2A4850980C2A0C200D2018079
:100040005BD2A0850A80C2A1C201D202804ED2A199
:10005000850B80C2A2C202D2038041D2A2850C804D
:10006000C2A3C203D2048034D2A3850D80C2A5C22C
:1000700004D2058027D2A5850E80C2A6C205D2066D
:10008000801AD2A6850F80C2A7C206D207800DD2E1
:10009000A7850880C2A4C207D20080007914783DE9
:1000A000D8FED9FA0516E516B4FF028002011A75CA
:1000B0001600800030B00221BE30B104C20821C752
:1000C000D20B200B0280EDE51575F06425F0F87574
:1000D000F00484F9E51575F00484E5F06002800C05
:1000E000E514B4020319800440FB8000E514900479
:1000F0000793FAE513142A292875F00784E5F0B46C
:100100000018750FFF750E92750D86750CC2750B74
:10011000C1750AAB7509A1750888B40118750FFF80
:10012000750EFF750DFF750C87750B86750AAF751B
:1001300009C6750888B40218750FFF750EFF750D96
:1001400098750CC1750B88750AAF75098775088895
:10015000B40318750FFF750EFF750D98750CC175FA
:020160000BCFC3
:10016200750AAB750987750888B40418750FFF7591
:100172000EFF750DFF750C92750B86750A89750950
:1001820087750888B40518750FFF750EFF750D92F7
:10019200750C88750B83750A887509A17508A3B457
:1001A2000618750FFF750EA1750DA3750CC8750B9A
:1001B200CF750AAB7509C27508A301A430B10280DC
:1001C20004D20880002008028005200A0980072046
:1001D20009478045416130B2028006D20A8000613F
:1001E2000130B3028014D20A80000514E514B40D64
:1001F2000280024020751401801B30B4028004D2B8
:100202000A8004C20A419C0515E515B46402800205
:100212004003751500C20A419C30B2028014D20913
:1002220080000512E512B418028002401E75120009
:10023200801930B3028018D20980000511E511B48B
:100242003C02800240057511008000C20980103016
:10025200B4028004D2098004C2098003751000E54B
:100262001075F00A849003FD93F509E5F093F50803
:10027200E51175F00A849003FD93F50BE5F093F513
:100282000AE51275F00A849003FD93F50DE5F093EB
:10029200F50C85FF0E85FF0F803BE51375F00A8490
:1002A2009003FD93F50FE5F093F50EE51475F00A52
:0A02B200849003FD93F50DE5F09331
:1002BC00F50C750AC0750BA4E51575F00A8490034E
:1002CC00FD93F509E5F093F50880000510E510B4F1
:1002DC003C028002406A7510000511E511B43C0225
:1002EC008002405C7511000512E512B41802800200
:1002FC00404E7512000513E514B40102806EB40271
:10030C000261B8B403028064B4040261A1B40502B2
:10031C00805AB40602807EB407028050B408028072
:10032C004BB40902806FB40A028041B40B028065A1
:10033C00B40C0D800030B20AE513B41F170202177B
:10034C00011AE513B41F03020389403175130175BB
:10035C001401411740DF7513017514010515E515DE
:10036C00B463028061405F751500805A30B207E5B6
:10037C0013B41F0B011AE513B41F084117411740A2
:10038C0045800B40F88000751301051480EF751340
:10039C00010514011A30B20BE513B41E02011A4008
:1003AC002580EBE513B41F0040D380DB30B220E591
:1003BC001575F00484E5F06002800DE513B41D02A0
:1003CC00011A400280C8011AE513B41C20011AE579
:1003DC001575F00484E5F06002800BE513B41D0282
:1003EC004117409980A1E513B41CF7011A40D7803E
:1003FC009DC0F9A4B0999282D880900000030306A6
:08040C000104060205000305CE
:00000001FF
